{
  "contractName": "Gaz",
  "abi": [
    {
      "inputs": [],
      "stateMutability": "nonpayable",
      "type": "constructor"
    },
    {
      "anonymous": false,
      "inputs": [
        {
          "indexed": true,
          "internalType": "address",
          "name": "owner",
          "type": "address"
        },
        {
          "indexed": true,
          "internalType": "address",
          "name": "spender",
          "type": "address"
        },
        {
          "indexed": false,
          "internalType": "uint256",
          "name": "amount",
          "type": "uint256"
        }
      ],
      "name": "Approval",
      "type": "event"
    },
    {
      "anonymous": false,
      "inputs": [
        {
          "indexed": false,
          "internalType": "address",
          "name": "from",
          "type": "address"
        },
        {
          "indexed": false,
          "internalType": "address",
          "name": "to",
          "type": "address"
        },
        {
          "indexed": false,
          "internalType": "uint256",
          "name": "amount",
          "type": "uint256"
        }
      ],
      "name": "Transfer",
      "type": "event"
    },
    {
      "anonymous": false,
      "inputs": [
        {
          "indexed": true,
          "internalType": "address",
          "name": "from",
          "type": "address"
        },
        {
          "indexed": true,
          "internalType": "address",
          "name": "to",
          "type": "address"
        },
        {
          "indexed": false,
          "internalType": "uint256",
          "name": "amount",
          "type": "uint256"
        }
      ],
      "name": "TransferFrom",
      "type": "event"
    },
    {
      "inputs": [
        {
          "internalType": "address",
          "name": "",
          "type": "address"
        },
        {
          "internalType": "address",
          "name": "",
          "type": "address"
        }
      ],
      "name": "allowance",
      "outputs": [
        {
          "internalType": "uint256",
          "name": "",
          "type": "uint256"
        }
      ],
      "stateMutability": "view",
      "type": "function",
      "constant": true
    },
    {
      "inputs": [
        {
          "internalType": "address",
          "name": "",
          "type": "address"
        }
      ],
      "name": "balances",
      "outputs": [
        {
          "internalType": "uint256",
          "name": "",
          "type": "uint256"
        }
      ],
      "stateMutability": "view",
      "type": "function",
      "constant": true
    },
    {
      "inputs": [],
      "name": "decimals",
      "outputs": [
        {
          "internalType": "uint256",
          "name": "",
          "type": "uint256"
        }
      ],
      "stateMutability": "view",
      "type": "function",
      "constant": true
    },
    {
      "inputs": [],
      "name": "name",
      "outputs": [
        {
          "internalType": "string",
          "name": "",
          "type": "string"
        }
      ],
      "stateMutability": "view",
      "type": "function",
      "constant": true
    },
    {
      "inputs": [],
      "name": "symbol",
      "outputs": [
        {
          "internalType": "string",
          "name": "",
          "type": "string"
        }
      ],
      "stateMutability": "view",
      "type": "function",
      "constant": true
    },
    {
      "inputs": [],
      "name": "totalSuply",
      "outputs": [
        {
          "internalType": "uint256",
          "name": "",
          "type": "uint256"
        }
      ],
      "stateMutability": "view",
      "type": "function",
      "constant": true
    },
    {
      "inputs": [
        {
          "internalType": "address",
          "name": "owner",
          "type": "address"
        }
      ],
      "name": "balanceOf",
      "outputs": [
        {
          "internalType": "uint256",
          "name": "",
          "type": "uint256"
        }
      ],
      "stateMutability": "view",
      "type": "function",
      "constant": true
    },
    {
      "inputs": [
        {
          "internalType": "address",
          "name": "to",
          "type": "address"
        },
        {
          "internalType": "uint256",
          "name": "amount",
          "type": "uint256"
        }
      ],
      "name": "transfer",
      "outputs": [
        {
          "internalType": "bool",
          "name": "",
          "type": "bool"
        }
      ],
      "stateMutability": "nonpayable",
      "type": "function"
    },
    {
      "inputs": [
        {
          "internalType": "address",
          "name": "from",
          "type": "address"
        },
        {
          "internalType": "address",
          "name": "to",
          "type": "address"
        },
        {
          "internalType": "uint256",
          "name": "amount",
          "type": "uint256"
        }
      ],
      "name": "transferFrom",
      "outputs": [
        {
          "internalType": "bool",
          "name": "",
          "type": "bool"
        }
      ],
      "stateMutability": "nonpayable",
      "type": "function"
    },
    {
      "inputs": [
        {
          "internalType": "address",
          "name": "spender",
          "type": "address"
        },
        {
          "internalType": "uint256",
          "name": "amount",
          "type": "uint256"
        }
      ],
      "name": "Approve",
      "outputs": [
        {
          "internalType": "bool",
          "name": "",
          "type": "bool"
        }
      ],
      "stateMutability": "nonpayable",
      "type": "function"
    }
  ],
  "bytecode": "0x6080604052620f42406000556040518060400160405280600381526020017f47617a00000000000000000000000000000000000000000000000000000000008152506001908162000051919062000372565b506040518060400160405280600381526020017f47415a00000000000000000000000000000000000000000000000000000000008152506002908162000098919062000372565b506012600355348015620000ab57600080fd5b50600054600460003373ffffffffffffffffffffffffffffffffffffffff1673ffffffffffffffffffffffffffffffffffffffff1681526020019081526020016000208190555062000459565b600081519050919050565b7f4e487b7100000000000000000000000000000000000000000000000000000000600052604160045260246000fd5b7f4e487b7100000000000000000000000000000000000000000000000000000000600052602260045260246000fd5b600060028204905060018216806200017a57607f821691505b60208210810362000190576200018f62000132565b5b50919050565b60008190508160005260206000209050919050565b60006020601f8301049050919050565b600082821b905092915050565b600060088302620001fa7fffffffffffffffffffffffffffffffffffffffffffffffffffffffffffffffff82620001bb565b620002068683620001bb565b95508019841693508086168417925050509392505050565b6000819050919050565b6000819050919050565b6000620002536200024d62000247846200021e565b62000228565b6200021e565b9050919050565b6000819050919050565b6200026f8362000232565b620002876200027e826200025a565b848454620001c8565b825550505050565b600090565b6200029e6200028f565b620002ab81848462000264565b505050565b5b81811015620002d357620002c760008262000294565b600181019050620002b1565b5050565b601f8211156200032257620002ec8162000196565b620002f784620001ab565b8101602085101562000307578190505b6200031f6200031685620001ab565b830182620002b0565b50505b505050565b600082821c905092915050565b6000620003476000198460080262000327565b1980831691505092915050565b600062000362838362000334565b9150826002028217905092915050565b6200037d82620000f8565b67ffffffffffffffff81111562000399576200039862000103565b5b620003a5825462000161565b620003b2828285620002d7565b600060209050601f831160018114620003ea5760008415620003d5578287015190505b620003e1858262000354565b86555062000451565b601f198416620003fa8662000196565b60005b828110156200042457848901518255600182019150602085019450602081019050620003fd565b8683101562000444578489015162000440601f89168262000334565b8355505b6001600288020188555050505b505050505050565b610dbf80620004696000396000f3fe608060405234801561001057600080fd5b506004361061009e5760003560e01c806390ec57f11161006657806390ec57f11461016f57806395d89b411461019f578063a2a96799146101bd578063a9059cbb146101db578063dd62ed3e1461020b5761009e565b806306fdde03146100a357806323b872dd146100c157806327e235e3146100f1578063313ce5671461012157806370a082311461013f575b600080fd5b6100ab61023b565b6040516100b89190610937565b60405180910390f35b6100db60048036038101906100d691906109f2565b6102c9565b6040516100e89190610a60565b60405180910390f35b61010b60048036038101906101069190610a7b565b610584565b6040516101189190610ab7565b60405180910390f35b61012961059c565b6040516101369190610ab7565b60405180910390f35b61015960048036038101906101549190610a7b565b6105a2565b6040516101669190610ab7565b60405180910390f35b61018960048036038101906101849190610ad2565b6105eb565b6040516101969190610a60565b60405180910390f35b6101a76106dd565b6040516101b49190610937565b60405180910390f35b6101c561076b565b6040516101d29190610ab7565b60405180910390f35b6101f560048036038101906101f09190610ad2565b610771565b6040516102029190610a60565b60405180910390f35b61022560048036038101906102209190610b12565b610879565b6040516102329190610ab7565b60405180910390f35b6001805461024890610b81565b80601f016020809104026020016040519081016040528092919081815260200182805461027490610b81565b80156102c15780601f10610296576101008083540402835291602001916102c1565b820191906000526020600020905b8154815290600101906020018083116102a457829003601f168201915b505050505081565b6000816102d5856105a2565b1015610316576040517f08c379a000000000000000000000000000000000000000000000000000000000815260040161030d90610bfe565b60405180910390fd5b81600560008673ffffffffffffffffffffffffffffffffffffffff1673ffffffffffffffffffffffffffffffffffffffff16815260200190815260200160002060003373ffffffffffffffffffffffffffffffffffffffff1673ffffffffffffffffffffffffffffffffffffffff1681526020019081526020016000205410156103d5576040517f08c379a00000000000000000000000000000000000000000000000000000000081526004016103cc90610c6a565b60405180910390fd5b81600460008673ffffffffffffffffffffffffffffffffffffffff1673ffffffffffffffffffffffffffffffffffffffff16815260200190815260200160002060008282546104249190610cb9565b9250508190555081600560008673ffffffffffffffffffffffffffffffffffffffff1673ffffffffffffffffffffffffffffffffffffffff16815260200190815260200160002060003373ffffffffffffffffffffffffffffffffffffffff1673ffffffffffffffffffffffffffffffffffffffff16815260200190815260200160002060008282546104b79190610cb9565b9250508190555081600460008573ffffffffffffffffffffffffffffffffffffffff1673ffffffffffffffffffffffffffffffffffffffff168152602001908152602001600020600082825461050d9190610ced565b925050819055503373ffffffffffffffffffffffffffffffffffffffff168473ffffffffffffffffffffffffffffffffffffffff167fc0d84ce5c7ff9ca21adb0f8436ff3f4951b4bb78c4e2fae2b6837958b3946ffd846040516105719190610ab7565b60405180910390a3600190509392505050565b60046020528060005260406000206000915090505481565b60035481565b6000600460008373ffffffffffffffffffffffffffffffffffffffff1673ffffffffffffffffffffffffffffffffffffffff168152602001908152602001600020549050919050565b600081600560003373ffffffffffffffffffffffffffffffffffffffff1673ffffffffffffffffffffffffffffffffffffffff16815260200190815260200160002060008573ffffffffffffffffffffffffffffffffffffffff1673ffffffffffffffffffffffffffffffffffffffff168152602001908152602001600020819055508273ffffffffffffffffffffffffffffffffffffffff163373ffffffffffffffffffffffffffffffffffffffff167f8c5be1e5ebec7d5bd14f71427d1e84f3dd0314c0f7b2291e5b200ac8c7c3b925846040516106cb9190610ab7565b60405180910390a36001905092915050565b600280546106ea90610b81565b80601f016020809104026020016040519081016040528092919081815260200182805461071690610b81565b80156107635780601f1061073857610100808354040283529160200191610763565b820191906000526020600020905b81548152906001019060200180831161074657829003601f168201915b505050505081565b60005481565b60008161077d336105a2565b101561078857600080fd5b81600460003373ffffffffffffffffffffffffffffffffffffffff1673ffffffffffffffffffffffffffffffffffffffff16815260200190815260200160002060008282546107d79190610cb9565b9250508190555081600460008573ffffffffffffffffffffffffffffffffffffffff1673ffffffffffffffffffffffffffffffffffffffff168152602001908152602001600020600082825461082d9190610ced565b925050819055507fddf252ad1be2c89b69c2b068fc378daa952ba7f163c4a11628f55a4df523b3ef33848460405161086793929190610d52565b60405180910390a16001905092915050565b6005602052816000526040600020602052806000526040600020600091509150505481565b600081519050919050565b600082825260208201905092915050565b60005b838110156108d85780820151818401526020810190506108bd565b838111156108e7576000848401525b50505050565b6000601f19601f8301169050919050565b60006109098261089e565b61091381856108a9565b93506109238185602086016108ba565b61092c816108ed565b840191505092915050565b6000602082019050818103600083015261095181846108fe565b905092915050565b600080fd5b600073ffffffffffffffffffffffffffffffffffffffff82169050919050565b60006109898261095e565b9050919050565b6109998161097e565b81146109a457600080fd5b50565b6000813590506109b681610990565b92915050565b6000819050919050565b6109cf816109bc565b81146109da57600080fd5b50565b6000813590506109ec816109c6565b92915050565b600080600060608486031215610a0b57610a0a610959565b5b6000610a19868287016109a7565b9350506020610a2a868287016109a7565b9250506040610a3b868287016109dd565b9150509250925092565b60008115159050919050565b610a5a81610a45565b82525050565b6000602082019050610a756000830184610a51565b92915050565b600060208284031215610a9157610a90610959565b5b6000610a9f848285016109a7565b91505092915050565b610ab1816109bc565b82525050565b6000602082019050610acc6000830184610aa8565b92915050565b60008060408385031215610ae957610ae8610959565b5b6000610af7858286016109a7565b9250506020610b08858286016109dd565b9150509250929050565b60008060408385031215610b2957610b28610959565b5b6000610b37858286016109a7565b9250506020610b48858286016109a7565b9150509250929050565b7f4e487b7100000000000000000000000000000000000000000000000000000000600052602260045260246000fd5b60006002820490506001821680610b9957607f821691505b602082108103610bac57610bab610b52565b5b50919050565b7f62616c616e636520746f6f206c6f770000000000000000000000000000000000600082015250565b6000610be8600f836108a9565b9150610bf382610bb2565b602082019050919050565b60006020820190508181036000830152610c1781610bdb565b9050919050565b7f416c6c6f77616e636520746f6f206c6f77000000000000000000000000000000600082015250565b6000610c546011836108a9565b9150610c5f82610c1e565b602082019050919050565b60006020820190508181036000830152610c8381610c47565b9050919050565b7f4e487b7100000000000000000000000000000000000000000000000000000000600052601160045260246000fd5b6000610cc4826109bc565b9150610ccf836109bc565b925082821015610ce257610ce1610c8a565b5b828203905092915050565b6000610cf8826109bc565b9150610d03836109bc565b9250827fffffffffffffffffffffffffffffffffffffffffffffffffffffffffffffffff03821115610d3857610d37610c8a565b5b828201905092915050565b610d4c8161097e565b82525050565b6000606082019050610d676000830186610d43565b610d746020830185610d43565b610d816040830184610aa8565b94935050505056fea264697066735822122032ade0694f6115fcfc9c6d0a8d64e377c16e7fd12aa955273a748bf2ee31584e64736f6c634300080f0033",
  "immutableReferences": {},
  "source": "pragma solidity ^0.8.0;\n\ncontract Gaz {\nuint public totalSuply = 1000000;\nstring public name = \"Gaz\";\nstring public symbol = \"GAZ\";\nuint public decimals = 18;\n\nmapping(address => uint)  public balances;\nmapping(address => mapping(address => uint)) public allowance;\nevent Transfer(address from, address to, uint amount);\nevent Approval(address indexed owner, address indexed spender, uint amount);\nevent TransferFrom(address indexed from, address indexed to, uint amount);\n\nconstructor() public {\n    balances[msg.sender] = totalSuply;\n}\n\nfunction balanceOf(address owner) public view returns(uint){\n    return balances[owner];\n    \n}\n\nfunction transfer(address to, uint amount) public returns(bool){\n    require(balanceOf(msg.sender) >= amount);\n    balances[msg.sender] -= amount;\n    balances[to] += amount;\n    emit Transfer(msg.sender, to, amount);\n    return true;\n}\n\nfunction transferFrom(address from, address to, uint amount) public returns(bool){\n    require(balanceOf(from) >= amount, \"balance too low\");\n    require(allowance[from][msg.sender] >= amount, \"Allowance too low\");\n    balances[from] -= amount;\n    allowance[from][msg.sender] -= amount;\n    balances[to] += amount;\n    emit TransferFrom(from, msg.sender, amount);\n    return true;\n\n}\n\nfunction Approve(address spender, uint amount) public returns(bool){\n    allowance[msg.sender][spender] = amount;\n    emit Approval(msg.sender, spender, amount);\n    return true;\n}\n}\n",
  "sourcePath": "/home/boss/Documents/bsc-utility-token/contracts/Gaz.sol",
  "compiler": {
    "name": "solc",
    "version": "0.8.15+commit.e14f2714.Emscripten.clang"
  },
  "schemaVersion": "3.4.8",
  "updatedAt": "2022-07-29T19:09:29.546Z",
  "networkType": "ethereum",
  "devdoc": {
    "kind": "dev",
    "methods": {},
    "version": 1
  },
  "userdoc": {
    "kind": "user",
    "methods": {},
    "version": 1
  }
}